{
  "contractName": "kyc",
  "abi": [
    {
      "inputs": [],
      "payable": false,
      "stateMutability": "nonpayable",
      "type": "constructor"
    },
    {
      "constant": false,
      "inputs": [
        {
          "name": "Uname",
          "type": "string"
        },
        {
          "name": "bankAddress",
          "type": "address"
        },
        {
          "name": "customerdata",
          "type": "string"
        }
      ],
      "name": "addRequest",
      "outputs": [],
      "payable": true,
      "stateMutability": "payable",
      "type": "function"
    },
    {
      "constant": false,
      "inputs": [
        {
          "name": "Uname",
          "type": "string"
        },
        {
          "name": "DataHash",
          "type": "string"
        }
      ],
      "name": "addCustomer",
      "outputs": [
        {
          "name": "",
          "type": "uint256"
        }
      ],
      "payable": true,
      "stateMutability": "payable",
      "type": "function"
    },
    {
      "constant": false,
      "inputs": [
        {
          "name": "uname",
          "type": "string"
        }
      ],
      "name": "upvoteCustomer",
      "outputs": [
        {
          "name": "",
          "type": "uint256"
        }
      ],
      "payable": true,
      "stateMutability": "payable",
      "type": "function"
    },
    {
      "constant": false,
      "inputs": [
        {
          "name": "uname",
          "type": "string"
        }
      ],
      "name": "downvoteCustomer",
      "outputs": [
        {
          "name": "",
          "type": "uint256"
        }
      ],
      "payable": true,
      "stateMutability": "payable",
      "type": "function"
    },
    {
      "constant": false,
      "inputs": [],
      "name": "inorganisation",
      "outputs": [
        {
          "name": "",
          "type": "bool"
        }
      ],
      "payable": true,
      "stateMutability": "payable",
      "type": "function"
    },
    {
      "constant": false,
      "inputs": [
        {
          "name": "bankAddress",
          "type": "address"
        },
        {
          "name": "ifAdded",
          "type": "bool"
        }
      ],
      "name": "updateRating",
      "outputs": [
        {
          "name": "",
          "type": "uint256"
        }
      ],
      "payable": true,
      "stateMutability": "payable",
      "type": "function"
    },
    {
      "constant": false,
      "inputs": [
        {
          "name": "Uname",
          "type": "string"
        }
      ],
      "name": "removeCustomer",
      "outputs": [
        {
          "name": "",
          "type": "uint256"
        }
      ],
      "payable": true,
      "stateMutability": "payable",
      "type": "function"
    },
    {
      "constant": false,
      "inputs": [
        {
          "name": "Uname",
          "type": "string"
        }
      ],
      "name": "viewCustomer",
      "outputs": [
        {
          "name": "",
          "type": "string"
        }
      ],
      "payable": true,
      "stateMutability": "payable",
      "type": "function"
    },
    {
      "constant": false,
      "inputs": [
        {
          "name": "Uname",
          "type": "string"
        },
        {
          "name": "DataHash",
          "type": "string"
        }
      ],
      "name": "modifyCustomer",
      "outputs": [
        {
          "name": "",
          "type": "uint256"
        }
      ],
      "payable": true,
      "stateMutability": "payable",
      "type": "function"
    },
    {
      "constant": false,
      "inputs": [
        {
          "name": "Uname",
          "type": "string"
        }
      ],
      "name": "getcustomerstatus",
      "outputs": [
        {
          "name": "",
          "type": "bool"
        }
      ],
      "payable": true,
      "stateMutability": "payable",
      "type": "function"
    },
    {
      "constant": false,
      "inputs": [
        {
          "name": "ethAcc",
          "type": "address"
        }
      ],
      "name": "Getbankdetails",
      "outputs": [
        {
          "name": "",
          "type": "string"
        }
      ],
      "payable": true,
      "stateMutability": "payable",
      "type": "function"
    },
    {
      "constant": false,
      "inputs": [
        {
          "name": "ethAcc",
          "type": "address"
        }
      ],
      "name": "GetBankReport",
      "outputs": [
        {
          "name": "",
          "type": "uint256"
        }
      ],
      "payable": true,
      "stateMutability": "payable",
      "type": "function"
    },
    {
      "constant": false,
      "inputs": [
        {
          "name": "uname",
          "type": "string"
        },
        {
          "name": "eth",
          "type": "address"
        },
        {
          "name": "regNum",
          "type": "string"
        }
      ],
      "name": "addBank",
      "outputs": [
        {
          "name": "",
          "type": "uint256"
        }
      ],
      "payable": true,
      "stateMutability": "payable",
      "type": "function"
    },
    {
      "constant": false,
      "inputs": [
        {
          "name": "eth",
          "type": "address"
        }
      ],
      "name": "removeBank",
      "outputs": [
        {
          "name": "",
          "type": "uint256"
        }
      ],
      "payable": true,
      "stateMutability": "payable",
      "type": "function"
    },
    {
      "constant": false,
      "inputs": [
        {
          "name": "eth",
          "type": "address"
        }
      ],
      "name": "ModifybankkycPermission",
      "outputs": [],
      "payable": true,
      "stateMutability": "payable",
      "type": "function"
    }
  ],
  "bytecode": "0x608060405234801561001057600080fd5b50336000806101000a81548173ffffffffffffffffffffffffffffffffffffffff021916908373ffffffffffffffffffffffffffffffffffffffff16021790555061226d806100606000396000f3006080604052600436106100db576000357c0100000000000000000000000000000000000000000000000000000000900463ffffffff168063107925bb146100e0578063218706c1146101b55780633190abc0146101ff57806332e61f3a146102b55780633377df271461037757806356ce6f72146103995780635a40c2fc146104485780637d2f42c3146104bc5780637d38d711146105125780639649650c14610582578063ccfa8e71146105cc578063cd70b8c2146106a2578063f2f4ed8f146106d8578063f72860ca14610748578063fc55ea9d146107fe575b600080fd5b61013a600480360381019080803590602001908201803590602001908080601f016020809104026020016040519081016040528093929190818152602001838380828437820191505050505050919291929050505061086e565b6040518080602001828103825283818151815260200191508051906020019080838360005b8381101561017a57808201518184015260208101905061015f565b50505050905090810190601f1680156101a75780820380516001836020036101000a031916815260200191505b509250505060405180910390f35b6101e9600480360381019080803573ffffffffffffffffffffffffffffffffffffffff169060200190929190505050610a07565b6040518082815260200191505060405180910390f35b61029f600480360381019080803590602001908201803590602001908080601f0160208091040260200160405190810160405280939291908181526020018383808284378201915050505050509192919290803590602001908201803590602001908080601f0160208091040260200160405190810160405280939291908181526020018383808284378201915050505050509192919290505050610ace565b6040518082815260200191505060405180910390f35b610375600480360381019080803590602001908201803590602001908080601f0160208091040260200160405190810160405280939291908181526020018383808284378201915050505050509192919290803573ffffffffffffffffffffffffffffffffffffffff169060200190929190803590602001908201803590602001908080601f0160208091040260200160405190810160405280939291908181526020018383808284378201915050505050509192919290505050610ca3565b005b61037f610e93565b604051808215151515815260200191505060405180910390f35b6103cd600480360381019080803573ffffffffffffffffffffffffffffffffffffffff169060200190929190505050610f39565b6040518080602001828103825283818151815260200191508051906020019080838360005b8381101561040d5780820151818401526020810190506103f2565b50505050905090810190601f16801561043a5780820380516001836020036101000a031916815260200191505b509250505060405180910390f35b6104a2600480360381019080803590602001908201803590602001908080601f01602080910402602001604051908101604052809392919081815260200183838082843782019150505050505091929192905050506110cc565b604051808215151515815260200191505060405180910390f35b6104fc600480360381019080803573ffffffffffffffffffffffffffffffffffffffff169060200190929190803515159060200190929190505050611165565b6040518082815260200191505060405180910390f35b61056c600480360381019080803590602001908201803590602001908080601f0160208091040260200160405190810160405280939291908181526020018383808284378201915050505050509192919290505050611272565b6040518082815260200191505060405180910390f35b6105b6600480360381019080803573ffffffffffffffffffffffffffffffffffffffff169060200190929190505050611314565b6040518082815260200191505060405180910390f35b61068c600480360381019080803590602001908201803590602001908080601f0160208091040260200160405190810160405280939291908181526020018383808284378201915050505050509192919290803573ffffffffffffffffffffffffffffffffffffffff169060200190929190803590602001908201803590602001908080601f0160208091040260200160405190810160405280939291908181526020018383808284378201915050505050509192919290505050611587565b6040518082815260200191505060405180910390f35b6106d6600480360381019080803573ffffffffffffffffffffffffffffffffffffffff16906020019092919050505061172a565b005b610732600480360381019080803590602001908201803590602001908080601f01602080910402602001604051908101604052809392919081815260200183838082843782019150505050505091929192905050506118d1565b6040518082815260200191505060405180910390f35b6107e8600480360381019080803590602001908201803590602001908080601f0160208091040260200160405190810160405280939291908181526020018383808284378201915050505050509192919290803590602001908201803590602001908080601f0160208091040260200160405190810160405280939291908181526020018383808284378201915050505050509192919290505050611973565b6040518082815260200191505060405180910390f35b610858600480360381019080803590602001908201803590602001908080601f0160208091040260200160405190810160405280939291908181526020018383808284378201915050505050509192919290505050611a81565b6040518082815260200191505060405180910390f35b6060600061087a610e93565b15156108bd576040805190810160405280600e81526020017f4163636573732064656e696564210000000000000000000000000000000000008152509150610a01565b600090505b6001805490508110156109c8576108f86001828154811015156108e157fe5b906000526020600020906006020160000184611cba565b156109bd5760018181548110151561090c57fe5b90600052602060002090600602016001018054600181600116156101000203166002900480601f0160208091040260200160405190810160405280929190818152602001828054600181600116156101000203166002900480156109b15780601f10610986576101008083540402835291602001916109b1565b820191906000526020600020905b81548152906001019060200180831161099457829003601f168201915b50505050509150610a01565b8060010190506108c2565b6040805190810160405280601f81526020017f437573746f6d6572206e6f7420666f756e6420696e206461746162617365210081525091505b50919050565b600080600090505b600280549050811015610ac3578273ffffffffffffffffffffffffffffffffffffffff16600282815481101515610a4257fe5b906000526020600020906006020160010160009054906101000a900473ffffffffffffffffffffffffffffffffffffffff1673ffffffffffffffffffffffffffffffffffffffff161415610ab857600281815481101515610a9f57fe5b9060005260206000209060060201600201549150610ac8565b806001019050610a0f565b600091505b50919050565b600080610ad9610e93565b1515610ae85760079150610c9c565b600090505b600180549050811015610b3c57610b23600182815481101515610b0c57fe5b906000526020600020906006020160000185611cba565b15610b315760029150610c9c565b806001019050610aed565b60018054809190600101610b509190611e3d565b50600180805490501015610b675760019150610c9c565b60c06040519081016040528085815260200184815260200160011515815260200160648152602001600081526020013373ffffffffffffffffffffffffffffffffffffffff16815250600180808054905003815481101515610bc557fe5b90600052602060002090600602016000820151816000019080519060200190610bef929190611e6f565b506020820151816001019080519060200190610c0c929190611e6f565b5060408201518160020160006101000a81548160ff021916908315150217905550606082015181600301556080820151816004015560a08201518160050160006101000a81548173ffffffffffffffffffffffffffffffffffffffff021916908373ffffffffffffffffffffffffffffffffffffffff160217905550905050610c96336001611165565b50600091505b5092915050565b60008090505b600380549050811015610d9c57610cdf600382815481101515610cc857fe5b906000526020600020906003020160000185611cba565b8015610d5657508273ffffffffffffffffffffffffffffffffffffffff16600382815481101515610d0c57fe5b906000526020600020906003020160010160009054906101000a900473ffffffffffffffffffffffffffffffffffffffff1673ffffffffffffffffffffffffffffffffffffffff16145b8015610d875750610d86600382815481101515610d6f57fe5b906000526020600020906003020160020183611cba565b5b15610d9157610e8d565b806001019050610ca9565b60038054809190600101610db09190611eef565b506060604051908101604052808581526020018473ffffffffffffffffffffffffffffffffffffffff168152602001838152506003600160038054905003815481101515610dfa57fe5b90600052602060002090600302016000820151816000019080519060200190610e24929190611e6f565b5060208201518160010160006101000a81548173ffffffffffffffffffffffffffffffffffffffff021916908373ffffffffffffffffffffffffffffffffffffffff1602179055506040820151816002019080519060200190610e88929190611e6f565b509050505b50505050565b600080600090505b600280549050811015610f30573373ffffffffffffffffffffffffffffffffffffffff16600282815481101515610ece57fe5b906000526020600020906006020160010160009054906101000a900473ffffffffffffffffffffffffffffffffffffffff1673ffffffffffffffffffffffffffffffffffffffff161415610f255760019150610f35565b806001019050610e9b565b600091505b5090565b606060008090505b60028054905081101561108d578273ffffffffffffffffffffffffffffffffffffffff16600282815481101515610f7457fe5b906000526020600020906006020160010160009054906101000a900473ffffffffffffffffffffffffffffffffffffffff1673ffffffffffffffffffffffffffffffffffffffff16141561108257600281815481101515610fd157fe5b90600052602060002090600602016000018054600181600116156101000203166002900480601f0160208091040260200160405190810160405280929190818152602001828054600181600116156101000203166002900480156110765780601f1061104b57610100808354040283529160200191611076565b820191906000526020600020905b81548152906001019060200180831161105957829003601f168201915b505050505091506110c6565b806001019050610f41565b6040805190810160405280600481526020017f6e756c6c0000000000000000000000000000000000000000000000000000000081525091505b50919050565b600080600090505b60018054905081101561115a5761110a6001828154811015156110f357fe5b906000526020600020906006020160000184611cba565b15611118576001915061115f565b61114160018281548110151561112a57fe5b906000526020600020906006020160000184611cba565b1561114f576000915061115f565b8060010190506110d4565b600091505b50919050565b600080600090505b600280549050811015611267578373ffffffffffffffffffffffffffffffffffffffff166002828154811015156111a057fe5b906000526020600020906006020160010160009054906101000a900473ffffffffffffffffffffffffffffffffffffffff1673ffffffffffffffffffffffffffffffffffffffff16141561125c5782156112295760028181548110151561120357fe5b90600052602060002090600602016003016000815480929190600101919050555061125b565b60028181548110151561123857fe5b906000526020600020906006020160030160008154809291906001900391905055505b5b80600101905061116d565b600091505092915050565b6000806000905060018054905081101561130d576112af60018281548110151561129857fe5b906000526020600020906006020160000184611cba565b156112e5576001818154811015156112c357fe5b9060005260206000209060060201600401600081548092919060010191905055505b6001818154811015156112f457fe5b906000526020600020906006020160040154915061130e565b5b50919050565b60008060008060009054906101000a900473ffffffffffffffffffffffffffffffffffffffff1673ffffffffffffffffffffffffffffffffffffffff163373ffffffffffffffffffffffffffffffffffffffff1614151561137457600080fd5b600091505b60028054905082101561157b578373ffffffffffffffffffffffffffffffffffffffff166002838154811015156113ac57fe5b906000526020600020906006020160010160009054906101000a900473ffffffffffffffffffffffffffffffffffffffff1673ffffffffffffffffffffffffffffffffffffffff161415611570576001820190505b6002805490508110156115515760028281548110151561141d57fe5b906000526020600020906006020160026001840381548110151561143d57fe5b906000526020600020906006020160008201816000019080546001816001161561010002031660029004611472929190611f21565b506001820160009054906101000a900473ffffffffffffffffffffffffffffffffffffffff168160010160006101000a81548173ffffffffffffffffffffffffffffffffffffffff021916908373ffffffffffffffffffffffffffffffffffffffff16021790555060028201548160020155600382015481600301556004820160009054906101000a900460ff168160040160006101000a81548160ff02191690831515021790555060058201816005019080546001816001161561010002031660029004611542929190611f21565b50905050806001019050611401565b60028054809190600190036115669190611fa8565b5060009250611580565b816001019150611379565b600192505b5050919050565b60008060009054906101000a900473ffffffffffffffffffffffffffffffffffffffff1673ffffffffffffffffffffffffffffffffffffffff163373ffffffffffffffffffffffffffffffffffffffff161415156115e457600080fd5b600280548091906001016115f89190611fa8565b5060c0604051908101604052808581526020018473ffffffffffffffffffffffffffffffffffffffff1681526020016000815260200160c8815260200160011515815260200183815250600260016002805490500381548110151561165957fe5b90600052602060002090600602016000820151816000019080519060200190611683929190611e6f565b5060208201518160010160006101000a81548173ffffffffffffffffffffffffffffffffffffffff021916908373ffffffffffffffffffffffffffffffffffffffff160217905550604082015181600201556060820151816003015560808201518160040160006101000a81548160ff02191690831515021790555060a082015181600501908051906020019061171b929190611e6f565b50905050600090509392505050565b60008060009054906101000a900473ffffffffffffffffffffffffffffffffffffffff1673ffffffffffffffffffffffffffffffffffffffff163373ffffffffffffffffffffffffffffffffffffffff1614151561178757600080fd5b600090505b6002805490508110156118cd578173ffffffffffffffffffffffffffffffffffffffff166002828154811015156117bf57fe5b906000526020600020906006020160010160009054906101000a900473ffffffffffffffffffffffffffffffffffffffff1673ffffffffffffffffffffffffffffffffffffffff1614801561184557506001151560028281548110151561182257fe5b906000526020600020906006020160040160009054906101000a900460ff161515145b1561188857600060028281548110151561185b57fe5b906000526020600020906006020160040160006101000a81548160ff0219169083151502179055506118c2565b600160028281548110151561189957fe5b906000526020600020906006020160040160006101000a81548160ff0219169083151502179055505b80600101905061178c565b5050565b6000806000905060018054905081101561196c5761190e6001828154811015156118f757fe5b906000526020600020906006020160000184611cba565b156119445760018181548110151561192257fe5b9060005260206000209060060201600301600081548092919060010191905055505b60018181548110151561195357fe5b906000526020600020906006020160030154915061196d565b5b50919050565b60008061197e610e93565b151561198d5760079150611a7a565b600090505b600180549050811015611a75576119c86001828154811015156119b157fe5b906000526020600020906006020160000185611cba565b15611a6a57826001828154811015156119dd57fe5b90600052602060002090600602016001019080519060200190611a01929190611fda565b5033600182815481101515611a1257fe5b906000526020600020906006020160050160006101000a81548173ffffffffffffffffffffffffffffffffffffffff021916908373ffffffffffffffffffffffffffffffffffffffff16021790555060009150611a7a565b806001019050611992565b600191505b5092915050565b600080600080611a8f610e93565b1515611a9e5760079350611cb2565b600092505b600180549050831015611cad57611ad9600184815481101515611ac257fe5b906000526020600020906006020160000186611cba565b15611ca257600183815481101515611aed57fe5b906000526020600020906006020160050160009054906101000a900473ffffffffffffffffffffffffffffffffffffffff1691506001830190505b600180549050811015611c7757600183815481101515611b4457fe5b90600052602060002090600602016001808503815481101515611b6357fe5b906000526020600020906006020160008201816000019080546001816001161561010002031660029004611b98929190611f21565b5060018201816001019080546001816001161561010002031660029004611bc0929190611f21565b506002820160009054906101000a900460ff168160020160006101000a81548160ff02191690831515021790555060038201548160030155600482015481600401556005820160009054906101000a900473ffffffffffffffffffffffffffffffffffffffff168160050160006101000a81548173ffffffffffffffffffffffffffffffffffffffff021916908373ffffffffffffffffffffffffffffffffffffffff160217905550905050806001019050611b28565b6001805480919060019003611c8c9190611e3d565b50611c98826000611165565b5060009350611cb2565b826001019250611aa3565b600193505b505050919050565b60008060606000859250849150815183805460018160011615610100020316600290049050141515611cef5760009350611e34565b600090505b82805460018160011615610100020316600290049050811015611e2f578181815181101515611d1f57fe5b9060200101517f010000000000000000000000000000000000000000000000000000000000000090047f0100000000000000000000000000000000000000000000000000000000000000027effffffffffffffffffffffffffffffffffffffffffffffffffffffffffffff191683828154600181600116156101000203166002900481101515611dab57fe5b815460011615611dca5790600052602060002090602091828204019190065b9054901a7f0100000000000000000000000000000000000000000000000000000000000000027effffffffffffffffffffffffffffffffffffffffffffffffffffffffffffff1916141515611e225760009350611e34565b8080600101915050611cf4565b600193505b50505092915050565b815481835581811115611e6a57600602816006028360005260206000209182019101611e69919061205a565b5b505050565b828054600181600116156101000203166002900490600052602060002090601f016020900481019282601f10611eb057805160ff1916838001178555611ede565b82800160010185558215611ede579182015b82811115611edd578251825591602001919060010190611ec2565b5b509050611eeb91906120e4565b5090565b815481835581811115611f1c57600302816003028360005260206000209182019101611f1b9190612109565b5b505050565b828054600181600116156101000203166002900490600052602060002090601f016020900481019282601f10611f5a5780548555611f97565b82800160010185558215611f9757600052602060002091601f016020900482015b82811115611f96578254825591600101919060010190611f7b565b5b509050611fa491906120e4565b5090565b815481835581811115611fd557600602816006028360005260206000209182019101611fd4919061216f565b5b505050565b828054600181600116156101000203166002900490600052602060002090601f016020900481019282601f1061201b57805160ff1916838001178555612049565b82800160010185558215612049579182015b8281111561204857825182559160200191906001019061202d565b5b50905061205691906120e4565b5090565b6120e191905b808211156120dd576000808201600061207991906121f9565b60018201600061208991906121f9565b6002820160006101000a81549060ff0219169055600382016000905560048201600090556005820160006101000a81549073ffffffffffffffffffffffffffffffffffffffff021916905550600601612060565b5090565b90565b61210691905b808211156121025760008160009055506001016120ea565b5090565b90565b61216c91905b80821115612168576000808201600061212891906121f9565b6001820160006101000a81549073ffffffffffffffffffffffffffffffffffffffff021916905560028201600061215f91906121f9565b5060030161210f565b5090565b90565b6121f691905b808211156121f2576000808201600061218e91906121f9565b6001820160006101000a81549073ffffffffffffffffffffffffffffffffffffffff0219169055600282016000905560038201600090556004820160006101000a81549060ff02191690556005820160006121e991906121f9565b50600601612175565b5090565b90565b50805460018160011615610100020316600290046000825580601f1061221f575061223e565b601f01602090049060005260206000209081019061223d91906120e4565b5b505600a165627a7a72305820c814dd16ed89f81710f2f37b648ecb13b5891731ba0a263c58c21106d730f9580029",
  "source": "pragma solidity ^0.4.4;\r\n\r\n\r\ncontract kyc{\r\n    \r\n    \r\n    address admin;\r\n    \r\n    constructor() public{\r\n        admin=msg.sender;\r\n    }\r\n    \r\n     modifier onlyAdmin {\r\n        require(msg.sender == admin);\r\n        _;\r\n    }\r\n     //Struct customer\r\n    //  uname - username of the customer\r\n    //  data - customer data\r\n    //  kycstatus - This is the status of the kyc request. \r\n    //  upvotes - number of upvotes recieved from banks\r\n    //  downvotes - number of upvotes recieved from banks\r\n    //  bank - address of bank that validated the customer account\r\n\r\n    \r\n    struct customer{\r\n        string username;\r\n        string data;\r\n        bool kycstatus;\r\n        uint upvotes;\r\n        uint downvotes;\r\n        address bank;\r\n    }\r\n        //  Struct Organisation\r\n    //  name - name of the bank/organisation\r\n    //  ethAddress - ethereum address of the bank/organisation\r\n    //  report - rating based on number of valid/invalid verified accounts\r\n    //  KYC_count - number of KYCs verified by the bank/organisation\r\n    // kycPermission - This is a boolean to hold status of bank\r\n    // regNumber - This is the registration number for the bank\r\n    \r\n    \r\n    struct organisation{\r\n        string name;\r\n        address ethaddress;\r\n        uint report;\r\n        uint kyc_count;\r\n        bool kycpermission;\r\n        string regnumber;\r\n        \r\n    }\r\n    \r\n    struct Request{\r\n        string username;\r\n        address bankAddress;\r\n        string customerdata;\r\n    }\r\n    \r\n    customer[] allCustomers;\r\n\r\n    //  list of all Banks/Organisations\r\n\r\n    organisation[] allOrgs;\r\n\r\n\r\n    Request[] allRequests;\r\n    \r\n    \r\n    //Add Request - This function is used to add the KYC request to the requests list.\r\n    \r\n    function addRequest(string Uname, address bankAddress,string customerdata) public payable {\r\n        for(uint i = 0; i < allRequests.length; ++ i) {\r\n            if(stringsEqual(allRequests[i].username, Uname) && allRequests[i].bankAddress == bankAddress &&  stringsEqual(allRequests[i].customerdata,customerdata)) {\r\n                return;\r\n            }\r\n        }\r\n        allRequests.length ++;\r\n        allRequests[allRequests.length - 1] = Request(Uname, bankAddress, customerdata);\r\n    }\r\n     function stringsEqual(string storage _a, string memory _b) internal view returns (bool) {\r\n\t\tbytes storage a = bytes(_a);\r\n\t\tbytes memory b = bytes(_b);\r\n\t\tif (a.length != b.length)\r\n\t\t\treturn false;\r\n\t\t// @todo unroll this loop\r\n\t\tfor (uint i = 0; i < a.length; i ++)\r\n        {\r\n\t\t\tif (a[i] != b[i])\r\n\t\t\t\treturn false;\r\n        }\r\n\t\treturn true;\r\n\t}\r\n\t\r\n\t //  function to add a customer \r\n    //  returns 0 if successful\r\n    //  returns 7 if inorganisation\r\n    //  returns 1 if size limit of the database is reached\r\n    //  returns 2 if customer already in network\r\n\t\r\n function addCustomer(string Uname, string DataHash) public payable returns(uint) {\r\n        if(!inorganisation())\r\n            return 7;\r\n        //  throw error if username already in use\r\n        for(uint i = 0;i < allCustomers.length; ++ i) {\r\n            if(stringsEqual(allCustomers[i].username, Uname))\r\n                return 2;\r\n        }\r\n        allCustomers.length ++;\r\n        //  throw error if there is overflow in uint\r\n        if(allCustomers.length < 1)\r\n            return 1;\r\n        allCustomers[allCustomers.length-1] = customer(Uname, DataHash, true,100, 0, msg.sender);\r\n        updateRating(msg.sender,true);\r\n        return 0;\r\n    }\r\n    \r\n    function upvoteCustomer(string uname) public payable  returns(uint){\r\n        for(uint i = 0;i < allCustomers.length; ++ i) {\r\n            if(stringsEqual(allCustomers[i].username, uname))\r\n                allCustomers[i].upvotes++;\r\n                return allCustomers[i].upvotes;\r\n        }\r\n    }\r\n    function downvoteCustomer(string uname) public payable returns(uint){\r\n        for(uint i = 0;i < allCustomers.length; ++ i) {\r\n            if(stringsEqual(allCustomers[i].username, uname))\r\n                allCustomers[i].downvotes++;\r\n                return allCustomers[i].downvotes;\r\n        }\r\n    }\r\n    \r\n    //  function to check access rights \r\n\r\n    \r\n        function inorganisation() public payable returns(bool) {\r\n        for(uint i = 0; i < allOrgs.length; ++ i) {\r\n            if(allOrgs[i].ethaddress == msg.sender)\r\n                return true;\r\n        }\r\n        return false;\r\n    }\r\nfunction updateRating(address bankAddress,bool ifAdded) public payable returns(uint) {\r\n        for(uint i = 0; i < allOrgs.length; ++ i) {\r\n            if(allOrgs[i].ethaddress == bankAddress) {\r\n                //update rating\r\n                if(ifAdded) {\r\n                    allOrgs[i].kyc_count ++;\r\n                   \r\n                }\r\n                else {\r\n                      allOrgs[i].kyc_count--;\r\n                    }\r\n                \r\n               \r\n            }\r\n        }\r\n        //  throw error if bank not found\r\n        return 0;\r\n    }\r\n    \r\n     //  function to remove  customer \r\n    //  returns 0 if successful\r\n    //  returns 7 if not in organisation\r\n    //  returns 1 if customer profile not in database\r\n    \r\n     function removeCustomer(string Uname) public payable returns(uint) {\r\n        if(!inorganisation())\r\n            return 7;\r\n        for(uint i = 0; i < allCustomers.length; ++ i) {\r\n            if(stringsEqual(allCustomers[i].username, Uname)) {\r\n                address a = allCustomers[i].bank;\r\n                for(uint j = i+1;j < allCustomers.length; ++ j) {\r\n                    allCustomers[i-1] = allCustomers[i];\r\n                }\r\n                allCustomers.length --;\r\n                updateRating(a,false);\r\n                //  updateRating(msg.sender, true);\r\n                return 0;\r\n            }\r\n        }\r\n        //  throw error if uname not found\r\n        return 1;\r\n    }\r\n     // function to return customer profile data\r\n     function viewCustomer(string Uname) public payable returns(string) {\r\n        if(!inorganisation())\r\n            return \"Access denied!\";\r\n        for(uint i = 0; i < allCustomers.length; ++ i) {\r\n            if(stringsEqual(allCustomers[i].username, Uname)) {\r\n                return allCustomers[i].data;\r\n            }\r\n        }\r\n        return \"Customer not found in database!\";\r\n    }\r\n    \r\n\r\n    //  function to modify a customer profile in database\r\n    //  returns 0 if successful\r\n    //  returns 7 if not in organisation\r\n    //  returns 1 if customer profile not in database\r\n\r\n    \r\n function modifyCustomer(string Uname,string DataHash) public payable returns(uint) {\r\n        if(!inorganisation())\r\n            return 7;\r\n        for(uint i = 0; i < allCustomers.length; ++ i) {\r\n            if(stringsEqual(allCustomers[i].username, Uname)) {\r\n                allCustomers[i].data = DataHash;\r\n                allCustomers[i].bank = msg.sender;\r\n                return 0;\r\n            }\r\n        }\r\n        //  throw error if uname not found\r\n        return 1;\r\n    }\r\n     function getcustomerstatus(string Uname) public payable returns(bool) {\r\n        for(uint i = 0; i < allCustomers.length; ++ i) {\r\n            if(stringsEqual(allCustomers[i].username, Uname) ) {\r\n                return true;\r\n            }\r\n            if(stringsEqual(allCustomers[i].username, Uname)) {\r\n                return false;\r\n            }\r\n        }\r\n        return false;\r\n    }\r\n     function Getbankdetails(address ethAcc) public payable returns(string) {\r\n        for(uint i = 0; i < allOrgs.length; ++ i) {\r\n            if(allOrgs[i].ethaddress == ethAcc) {\r\n                return allOrgs[i].name;\r\n            }\r\n        }\r\n        return \"null\";\r\n    }\r\n    function GetBankReport(address ethAcc) public payable returns(uint) {\r\n        for(uint i = 0; i < allOrgs.length; ++ i) {\r\n            if(allOrgs[i].ethaddress == ethAcc) {\r\n                return allOrgs[i].report;\r\n            }\r\n        }\r\n        return 0;\r\n    }\r\n     //  function that adds an organisation to the network\r\n    //  returns 0 if successfull\r\n    //  returns 7 if in organisation\r\n    \r\n     function addBank(string uname, address eth, string regNum) onlyAdmin public payable returns(uint) {\r\n        \r\n            allOrgs.length ++;\r\n            allOrgs[allOrgs.length - 1] = organisation(uname, eth,0, 200, true, regNum);\r\n            return 0;\r\n\r\n    }\r\n    \r\n    \r\n    //  function that removes an organisation from the network\r\n    //  returns 0 if successful\r\n    //  returns 1 if organisation to be removed not part of network\r\n\r\n    \r\n    function removeBank(address eth) onlyAdmin public payable returns(uint) {\r\n        \r\n        for(uint i = 0; i < allOrgs.length; ++ i) {\r\n            if(allOrgs[i].ethaddress == eth) {\r\n                for(uint j = i+1;j < allOrgs.length; ++ j) {\r\n                    allOrgs[i-1] = allOrgs[i];\r\n                }\r\n                allOrgs.length --;\r\n                return 0;\r\n            }\r\n        }\r\n            \r\n        return 1;\r\n    }\r\n    \r\n    //\r\n    function ModifybankkycPermission(address eth) onlyAdmin public payable{\r\n    \r\n        for(uint i=0;i < allOrgs.length;++i)\r\n        {\r\n            if(allOrgs[i].ethaddress == eth   &&  allOrgs[i].kycpermission==true)\r\n            {\r\n                allOrgs[i].kycpermission=false;\r\n            }\r\n           else\r\n           {\r\n               allOrgs[i].kycpermission=true;\r\n           }\r\n        }\r\n        }\r\n    \r\n\r\n}",
  "sourcePath": "C:\\Users\\HP\\truffleproj\\contracts\\KYC.sol",
  "compiler": {
    "name": "solc",
    "version": "0.4.26+commit.4563c3fc.Emscripten.clang"
  },
  "schemaVersion": "3.0.23",
  "updatedAt": "2020-03-25T18:06:22.802Z",
  "devdoc": {
    "methods": {}
  },
  "userdoc": {
    "methods": {}
  }
}